:100000000C9438000C944A000C944A000C944A005A
:100010000C944A000C944A000C944A000C944A0038
:100020000C944A000C944A000C944A000C944A0028
:100030000C944A000C944A000C944A000C944A0018
:100040000C944A000C944A000C944A000C944A0008
:100050000C944A000C944A000C944A000C944A00F8
:100060000C944A000C944A000C944A000C944A00E8
:1000700011241FBECFEFD0E1DEBFCDBF21E0A0E055
:10008000B1E001C01D92A830B207E1F70E94BB00A9
:100090000C94EB000C94000011B814B88FE087B9F1
:1000A00018B887EC90E00197F1F700C0000088E0F5
:1000B00088B98FEF8AB91BB8109200011092010124
:1000C0001092020110920301109204011092050196
:1000D0001092060110920701089542984098419AA3
:1000E00066B1862F90E0A0E0B0E0409A419ABA2F26
:1000F000A92F982F882726B1820F911DA11DB11D10
:1001000040984198BA2FA92F982F882726B1820F9F
:10011000911DA11DB11D409A41986627782F892F06
:100120009A2F26B1429A620F711D811D911D08956B
:100130000F931F93411101C05D9800E010E09801FA
:1001400060177107820793079CF05C9AEFECF7E069
:100150003197F1F700C000005C98EFECF7E03197C1
:10016000F1F700C000000F5F1F4F2F4F3F4FE8CF48
:100170001F910F9108950E944C000E946D006093A2
:10018000040170930501809306019093070100918B
:100190000001109101012091020130910301061725
:1001A00017072807390734F4601B710B820B930B78
:1001B0004FEF0EC06017710782079307F4F66801CE
:1001C0007901C61AD70AE80AF90AC701B60140E060
:0A01D0000E949800D2CFF894FFCFF0
:00000001FF
