:100000000C9438000C944A000C944A000C944A005A
:100010000C944A000C944A000C944A000C944A0038
:100020000C944A000C944A000C944A000C944A0028
:100030000C944A000C944A000C944A000C944A0018
:100040000C944A000C944A000C944A000C944A0008
:100050000C944A000C944A000C944A000C944A00F8
:100060000C944A000C944A000C944A000C944A00E8
:1000700011241FBECFEFD0E1DEBFCDBF21E0A0E055
:10008000B1E001C01D92AC30B207E1F70E94EF0071
:100090000C945D020C94000080E885BF85BF11B808
:1000A00088E084B984E085B98FEF87B918B88FE309
:1000B0009CE90197F1F700C0000080E188B98FEF5B
:1000C0008AB91BB81092000110920101109202012E
:1000D0001092030110920401109205011092060182
:1000E0001092070180E090E0A0ECB0E4809308015A
:1000F00090930901A0930A01B0930B0108954598CC
:100100004798469A60B1862F90E0A0E0B0E0479A09
:10011000469ABA2FA92F982F882720B1820F911DB8
:10012000A11DB11D47984698BA2FA92F982F88274F
:1001300020B1820F911DA11DB11D479A46986627D7
:10014000782F892F9A2F20B1459A620F711D811D3A
:10015000911D0E94D10126E636E646EE50E40E944B
:1001600036010E949E010895CF92DF92EF92FF9296
:10017000211531054105510529F45D9AC12CD12C79
:10018000760107C02130310541055105B9F75D9869
:10019000F5CF6C157D058E059F05A4F05C9AEFECFC
:1001A000F7E03197F1F700C000005C98EFECF7E062
:1001B0003197F1F700C00000FFEFCF1ADF0AEF0A16
:1001C000FF0AE7CFFF90EF90DF90CF9008952617BA
:1001D00037074807590714F4CA01B90108950E9466
:1001E0004C000E947F00609304017093050180938E
:1001F00006019093070100910001109101012091E7
:10020000020130910301061717072807390794F4F4
:10021000601B710B820B930B6B307105810591058F
:1002200024F06AE070E080E090E021E030E040E01F
:1002300050E019C0601771078207930794F66801B0
:100240007901C61AD70AE80AF90AC701B6016B3064
:1002500071058105910524F06AE070E080E090E08E
:1002600020E030E0A9010E94B400BBCF0CD0EBC06D
:10027000E3D040F0DAD030F021F45F3F19F0CCC089
:10028000511115C1CFC0F0D098F39923C9F355236C
:10029000B1F3951B550BBB27AA2762177307840779
:1002A00038F09F5F5F4F220F331F441FAA1FA9F32F
:1002B00033D00E2E3AF0E0E830D091505040E69521
:1002C000001CCAF729D0FE2F27D0660F771F881F82
:1002D000BB1F261737074807AB07B0E809F0BB0B71
:1002E000802DBF01FF2793585F4F2AF09E3F510595
:1002F00068F092C0DCC05F3FECF3983EDCF386957B
:1003000077956795B795F7959F5FC9F7880F911D0A
:100310009695879597F90895E1E0660F771F881FF6
:10032000BB1F621773078407BA0720F0621B730BA9
:10033000840BBA0BEE1F88F7E095089504D06894FB
:10034000B111B5C0089598D088F09F5790F0B92F9B
:100350009927B751A0F0D1F0660F771F881F991F1A
:100360001AF0BA95C9F712C0B13081F09FD0B1E050
:1003700008959CC0672F782F8827B85F39F0B93F60
:10038000CCF3869577956795B395D9F73EF490951C
:100390008095709561957F4F8F4F9F4F0895E8949A
:1003A00009C097FB3EF490958095709561957F4FBD
:1003B0008F4F9F4F9923A9F0F92F96E9BB2793956B
:1003C000F695879577956795B795F111F8CFFAF47B
:1003D000BB0F11F460FF1BC06F5F7F4F8F4F9F4FAC
:1003E00016C0882311F096E911C0772321F09EE80A
:1003F000872F762F05C0662371F096E8862F70E070
:1004000060E02AF09A95660F771F881FDAF7880F49
:100410009695879597F9089597F99F6780E870E01A
:1004200060E008959FEF80EC089500240A9416166A
:10043000170618060906089500240A9412161306D2
:10044000140605060895092E0394000C11F4882360
:1004500052F0BB0F40F4BF2B11F460FF04C06F5F7C
:100460007F4F8F4F9F4F089557FD9058440F551F52
:1004700059F05F3F71F04795880F97FB991F61F026
:100480009F3F79F087950895121613061406551F9D
:10049000F2CF4695F1DF08C0161617061806991F09
:1004A000F1CF86957105610508940895E894BB27FE
:0E04B00066277727CB0197F90895F894FFCFC0
:00000001FF
